{
  "_format": "hh-sol-artifact-1",
  "contractName": "Requester",
  "sourceName": "contracts/Requester.sol",
  "abi": [
    {
      "inputs": [
        {
          "internalType": "address",
          "name": "airnodeAddress",
          "type": "address"
        }
      ],
      "stateMutability": "nonpayable",
      "type": "constructor"
    },
    {
      "inputs": [],
      "name": "airnodeRrp",
      "outputs": [
        {
          "internalType": "contract IAirnodeRrp",
          "name": "",
          "type": "address"
        }
      ],
      "stateMutability": "view",
      "type": "function"
    },
    {
      "inputs": [
        {
          "internalType": "bytes32",
          "name": "",
          "type": "bytes32"
        }
      ],
      "name": "decodedData",
      "outputs": [
        {
          "internalType": "string",
          "name": "",
          "type": "string"
        }
      ],
      "stateMutability": "view",
      "type": "function"
    },
    {
      "inputs": [
        {
          "internalType": "bytes32",
          "name": "",
          "type": "bytes32"
        }
      ],
      "name": "encodedData",
      "outputs": [
        {
          "internalType": "bytes",
          "name": "",
          "type": "bytes"
        }
      ],
      "stateMutability": "view",
      "type": "function"
    },
    {
      "inputs": [
        {
          "internalType": "bytes32",
          "name": "requestId",
          "type": "bytes32"
        },
        {
          "internalType": "bytes",
          "name": "data",
          "type": "bytes"
        }
      ],
      "name": "fulfill",
      "outputs": [],
      "stateMutability": "nonpayable",
      "type": "function"
    },
    {
      "inputs": [
        {
          "internalType": "bytes32",
          "name": "",
          "type": "bytes32"
        }
      ],
      "name": "incomingFulfillments",
      "outputs": [
        {
          "internalType": "bool",
          "name": "",
          "type": "bool"
        }
      ],
      "stateMutability": "view",
      "type": "function"
    },
    {
      "inputs": [
        {
          "internalType": "address",
          "name": "airnode",
          "type": "address"
        },
        {
          "internalType": "bytes32",
          "name": "endpointId",
          "type": "bytes32"
        },
        {
          "internalType": "address",
          "name": "sponsor",
          "type": "address"
        },
        {
          "internalType": "address",
          "name": "sponsorWallet",
          "type": "address"
        },
        {
          "internalType": "bytes",
          "name": "parameters",
          "type": "bytes"
        }
      ],
      "name": "makeRequest",
      "outputs": [],
      "stateMutability": "nonpayable",
      "type": "function"
    }
  ],
  "bytecode": "0x60a06040523480156200001157600080fd5b50604051620010aa380380620010aa833981810160405281019062000037919062000150565b808073ffffffffffffffffffffffffffffffffffffffff1660808173ffffffffffffffffffffffffffffffffffffffff16815250508073ffffffffffffffffffffffffffffffffffffffff1663addf027c3060016040518363ffffffff1660e01b8152600401620000aa929190620001b0565b600060405180830381600087803b158015620000c557600080fd5b505af1158015620000da573d6000803e3d6000fd5b505050505050620001dd565b600080fd5b600073ffffffffffffffffffffffffffffffffffffffff82169050919050565b60006200011882620000eb565b9050919050565b6200012a816200010b565b81146200013657600080fd5b50565b6000815190506200014a816200011f565b92915050565b600060208284031215620001695762000168620000e6565b5b6000620001798482850162000139565b91505092915050565b6200018d816200010b565b82525050565b60008115159050919050565b620001aa8162000193565b82525050565b6000604082019050620001c7600083018562000182565b620001d660208301846200019f565b9392505050565b608051610ea3620002076000396000818161014f0152818161017301526104480152610ea36000f3fe608060405234801561001057600080fd5b50600436106100625760003560e01c806371bab666146100675780637c1de7e114610085578063c7a14638146100a1578063d9163233146100d1578063dd2ae83f14610101578063e6080aa414610131575b600080fd5b61006f61014d565b60405161007c91906106e4565b60405180910390f35b61009f600480360381019061009a91906107ae565b610171565b005b6100bb60048036038101906100b6919061080e565b6102e4565b6040516100c891906108d4565b60405180910390f35b6100eb60048036038101906100e6919061080e565b610384565b6040516100f8919061094b565b60405180910390f35b61011b6004803603810190610116919061080e565b610424565b6040516101289190610988565b60405180910390f35b61014b600480360381019061014691906109e1565b610444565b005b7f000000000000000000000000000000000000000000000000000000000000000081565b7f000000000000000000000000000000000000000000000000000000000000000073ffffffffffffffffffffffffffffffffffffffff163373ffffffffffffffffffffffffffffffffffffffff16146101ff576040517f08c379a00000000000000000000000000000000000000000000000000000000081526004016101f690610ac7565b60405180910390fd5b60008084815260200190815260200160002060009054906101000a900460ff1661025e576040517f08c379a000000000000000000000000000000000000000000000000000000000815260040161025590610b33565b60405180910390fd5b60008084815260200190815260200160002060006101000a81549060ff021916905581816001600086815260200190815260200160002091906102a292919061053c565b50600082828101906102b49190610c83565b9050806002600086815260200190815260200160002090805190602001906102dd9291906105c2565b5050505050565b6001602052806000526040600020600091509050805461030390610cfb565b80601f016020809104026020016040519081016040528092919081815260200182805461032f90610cfb565b801561037c5780601f106103515761010080835404028352916020019161037c565b820191906000526020600020905b81548152906001019060200180831161035f57829003601f168201915b505050505081565b600260205280600052604060002060009150905080546103a390610cfb565b80601f01602080910402602001604051908101604052809291908181526020018280546103cf90610cfb565b801561041c5780601f106103f15761010080835404028352916020019161041c565b820191906000526020600020905b8154815290600101906020018083116103ff57829003601f168201915b505050505081565b60006020528060005260406000206000915054906101000a900460ff1681565b60007f000000000000000000000000000000000000000000000000000000000000000073ffffffffffffffffffffffffffffffffffffffff16636e6be03f8888888830637c1de7e160e01b8a8a6040518963ffffffff1660e01b81526004016104b4989796959493929190610db3565b602060405180830381600087803b1580156104ce57600080fd5b505af11580156104e2573d6000803e3d6000fd5b505050506040513d601f19601f820116820180604052508101906105069190610e40565b9050600160008083815260200190815260200160002060006101000a81548160ff02191690831515021790555050505050505050565b82805461054890610cfb565b90600052602060002090601f01602090048101928261056a57600085556105b1565b82601f1061058357803560ff19168380011785556105b1565b828001600101855582156105b1579182015b828111156105b0578235825591602001919060010190610595565b5b5090506105be9190610648565b5090565b8280546105ce90610cfb565b90600052602060002090601f0160209004810192826105f05760008555610637565b82601f1061060957805160ff1916838001178555610637565b82800160010185558215610637579182015b8281111561063657825182559160200191906001019061061b565b5b5090506106449190610648565b5090565b5b80821115610661576000816000905550600101610649565b5090565b600073ffffffffffffffffffffffffffffffffffffffff82169050919050565b6000819050919050565b60006106aa6106a56106a084610665565b610685565b610665565b9050919050565b60006106bc8261068f565b9050919050565b60006106ce826106b1565b9050919050565b6106de816106c3565b82525050565b60006020820190506106f960008301846106d5565b92915050565b6000604051905090565b600080fd5b600080fd5b6000819050919050565b61072681610713565b811461073157600080fd5b50565b6000813590506107438161071d565b92915050565b600080fd5b600080fd5b600080fd5b60008083601f84011261076e5761076d610749565b5b8235905067ffffffffffffffff81111561078b5761078a61074e565b5b6020830191508360018202830111156107a7576107a6610753565b5b9250929050565b6000806000604084860312156107c7576107c6610709565b5b60006107d586828701610734565b935050602084013567ffffffffffffffff8111156107f6576107f561070e565b5b61080286828701610758565b92509250509250925092565b60006020828403121561082457610823610709565b5b600061083284828501610734565b91505092915050565b600081519050919050565b600082825260208201905092915050565b60005b8381101561087557808201518184015260208101905061085a565b83811115610884576000848401525b50505050565b6000601f19601f8301169050919050565b60006108a68261083b565b6108b08185610846565b93506108c0818560208601610857565b6108c98161088a565b840191505092915050565b600060208201905081810360008301526108ee818461089b565b905092915050565b600081519050919050565b600082825260208201905092915050565b600061091d826108f6565b6109278185610901565b9350610937818560208601610857565b6109408161088a565b840191505092915050565b600060208201905081810360008301526109658184610912565b905092915050565b60008115159050919050565b6109828161096d565b82525050565b600060208201905061099d6000830184610979565b92915050565b60006109ae82610665565b9050919050565b6109be816109a3565b81146109c957600080fd5b50565b6000813590506109db816109b5565b92915050565b60008060008060008060a087890312156109fe576109fd610709565b5b6000610a0c89828a016109cc565b9650506020610a1d89828a01610734565b9550506040610a2e89828a016109cc565b9450506060610a3f89828a016109cc565b935050608087013567ffffffffffffffff811115610a6057610a5f61070e565b5b610a6c89828a01610758565b92509250509295509295509295565b7f43616c6c6572206e6f74204169726e6f64652052525000000000000000000000600082015250565b6000610ab1601683610901565b9150610abc82610a7b565b602082019050919050565b60006020820190508181036000830152610ae081610aa4565b9050919050565b7f4e6f20737563682072657175657374206d616465000000000000000000000000600082015250565b6000610b1d601483610901565b9150610b2882610ae7565b602082019050919050565b60006020820190508181036000830152610b4c81610b10565b9050919050565b600080fd5b7f4e487b7100000000000000000000000000000000000000000000000000000000600052604160045260246000fd5b610b908261088a565b810181811067ffffffffffffffff82111715610baf57610bae610b58565b5b80604052505050565b6000610bc26106ff565b9050610bce8282610b87565b919050565b600067ffffffffffffffff821115610bee57610bed610b58565b5b610bf78261088a565b9050602081019050919050565b82818337600083830152505050565b6000610c26610c2184610bd3565b610bb8565b905082815260208101848484011115610c4257610c41610b53565b5b610c4d848285610c04565b509392505050565b600082601f830112610c6a57610c69610749565b5b8135610c7a848260208601610c13565b91505092915050565b600060208284031215610c9957610c98610709565b5b600082013567ffffffffffffffff811115610cb757610cb661070e565b5b610cc384828501610c55565b91505092915050565b7f4e487b7100000000000000000000000000000000000000000000000000000000600052602260045260246000fd5b60006002820490506001821680610d1357607f821691505b60208210811415610d2757610d26610ccc565b5b50919050565b610d36816109a3565b82525050565b610d4581610713565b82525050565b60007fffffffff0000000000000000000000000000000000000000000000000000000082169050919050565b610d8081610d4b565b82525050565b6000610d928385610846565b9350610d9f838584610c04565b610da88361088a565b840190509392505050565b600060e082019050610dc8600083018b610d2d565b610dd5602083018a610d3c565b610de26040830189610d2d565b610def6060830188610d2d565b610dfc6080830187610d2d565b610e0960a0830186610d77565b81810360c0830152610e1c818486610d86565b90509998505050505050505050565b600081519050610e3a8161071d565b92915050565b600060208284031215610e5657610e55610709565b5b6000610e6484828501610e2b565b9150509291505056fea2646970667358221220adb7e4d8e398950bfb7cbd48849e566f3397d8c738cba394eaead53150d6b58e64736f6c63430008090033",
  "linkReferences": {},
  "deployedLinkReferences": {}
}