{
  "_format": "hh-sol-artifact-1",
  "contractName": "Requester",
  "sourceName": "contracts/coingecko-testable/Requester.sol",
  "abi": [
    {
      "inputs": [
        {
          "internalType": "address",
          "name": "airnodeAddress",
          "type": "address"
        }
      ],
      "stateMutability": "nonpayable",
      "type": "constructor"
    },
    {
      "inputs": [],
      "name": "airnodeRrp",
      "outputs": [
        {
          "internalType": "contract IAirnodeRrp",
          "name": "",
          "type": "address"
        }
      ],
      "stateMutability": "view",
      "type": "function"
    },
    {
      "inputs": [
        {
          "internalType": "bytes32",
          "name": "requestId",
          "type": "bytes32"
        },
        {
          "internalType": "bytes",
          "name": "data",
          "type": "bytes"
        }
      ],
      "name": "fulfill",
      "outputs": [],
      "stateMutability": "nonpayable",
      "type": "function"
    },
    {
      "inputs": [
        {
          "internalType": "bytes32",
          "name": "",
          "type": "bytes32"
        }
      ],
      "name": "fulfilledData",
      "outputs": [
        {
          "internalType": "string",
          "name": "",
          "type": "string"
        }
      ],
      "stateMutability": "view",
      "type": "function"
    },
    {
      "inputs": [
        {
          "internalType": "bytes32",
          "name": "",
          "type": "bytes32"
        }
      ],
      "name": "incomingFulfillments",
      "outputs": [
        {
          "internalType": "bool",
          "name": "",
          "type": "bool"
        }
      ],
      "stateMutability": "view",
      "type": "function"
    },
    {
      "inputs": [
        {
          "internalType": "address",
          "name": "airnode",
          "type": "address"
        },
        {
          "internalType": "bytes32",
          "name": "endpointId",
          "type": "bytes32"
        },
        {
          "internalType": "address",
          "name": "sponsor",
          "type": "address"
        },
        {
          "internalType": "address",
          "name": "sponsorWallet",
          "type": "address"
        },
        {
          "internalType": "bytes",
          "name": "parameters",
          "type": "bytes"
        }
      ],
      "name": "makeRequest",
      "outputs": [],
      "stateMutability": "nonpayable",
      "type": "function"
    }
  ],
  "bytecode": "0x60a06040523480156200001157600080fd5b5060405162000ec038038062000ec0833981810160405281019062000037919062000150565b808073ffffffffffffffffffffffffffffffffffffffff1660808173ffffffffffffffffffffffffffffffffffffffff16815250508073ffffffffffffffffffffffffffffffffffffffff1663addf027c3060016040518363ffffffff1660e01b8152600401620000aa929190620001b0565b600060405180830381600087803b158015620000c557600080fd5b505af1158015620000da573d6000803e3d6000fd5b505050505050620001dd565b600080fd5b600073ffffffffffffffffffffffffffffffffffffffff82169050919050565b60006200011882620000eb565b9050919050565b6200012a816200010b565b81146200013657600080fd5b50565b6000815190506200014a816200011f565b92915050565b600060208284031215620001695762000168620000e6565b5b6000620001798482850162000139565b91505092915050565b6200018d816200010b565b82525050565b60008115159050919050565b620001aa8162000193565b82525050565b6000604082019050620001c7600083018562000182565b620001d660208301846200019f565b9392505050565b608051610cb962000207600039600081816101b4015281816101d8015261034a0152610cb96000f3fe608060405234801561001057600080fd5b50600436106100575760003560e01c8063406c6d6c1461005c57806371bab6661461008c5780637c1de7e1146100aa578063dd2ae83f146100c6578063e6080aa4146100f6575b600080fd5b6100766004803603810190610071919061052b565b610112565b60405161008391906105f1565b60405180910390f35b6100946101b2565b6040516100a19190610692565b60405180910390f35b6100c460048036038101906100bf9190610712565b6101d6565b005b6100e060048036038101906100db919061052b565b610326565b6040516100ed919061078d565b60405180910390f35b610110600480360381019061010b91906107e6565b610346565b005b60016020528060005260406000206000915090508054610131906108af565b80601f016020809104026020016040519081016040528092919081815260200182805461015d906108af565b80156101aa5780601f1061017f576101008083540402835291602001916101aa565b820191906000526020600020905b81548152906001019060200180831161018d57829003601f168201915b505050505081565b7f000000000000000000000000000000000000000000000000000000000000000081565b7f000000000000000000000000000000000000000000000000000000000000000073ffffffffffffffffffffffffffffffffffffffff163373ffffffffffffffffffffffffffffffffffffffff1614610264576040517f08c379a000000000000000000000000000000000000000000000000000000000815260040161025b9061092d565b60405180910390fd5b60008084815260200190815260200160002060009054906101000a900460ff166102c3576040517f08c379a00000000000000000000000000000000000000000000000000000000081526004016102ba90610999565b60405180910390fd5b60008084815260200190815260200160002060006101000a81549060ff0219169055600082828101906102f69190610ae9565b90508060016000868152602001908152602001600020908051906020019061031f92919061043e565b5050505050565b60006020528060005260406000206000915054906101000a900460ff1681565b60007f000000000000000000000000000000000000000000000000000000000000000073ffffffffffffffffffffffffffffffffffffffff16636e6be03f8888888830637c1de7e160e01b8a8a6040518963ffffffff1660e01b81526004016103b6989796959493929190610bc9565b602060405180830381600087803b1580156103d057600080fd5b505af11580156103e4573d6000803e3d6000fd5b505050506040513d601f19601f820116820180604052508101906104089190610c56565b9050600160008083815260200190815260200160002060006101000a81548160ff02191690831515021790555050505050505050565b82805461044a906108af565b90600052602060002090601f01602090048101928261046c57600085556104b3565b82601f1061048557805160ff19168380011785556104b3565b828001600101855582156104b3579182015b828111156104b2578251825591602001919060010190610497565b5b5090506104c091906104c4565b5090565b5b808211156104dd5760008160009055506001016104c5565b5090565b6000604051905090565b600080fd5b600080fd5b6000819050919050565b610508816104f5565b811461051357600080fd5b50565b600081359050610525816104ff565b92915050565b600060208284031215610541576105406104eb565b5b600061054f84828501610516565b91505092915050565b600081519050919050565b600082825260208201905092915050565b60005b83811015610592578082015181840152602081019050610577565b838111156105a1576000848401525b50505050565b6000601f19601f8301169050919050565b60006105c382610558565b6105cd8185610563565b93506105dd818560208601610574565b6105e6816105a7565b840191505092915050565b6000602082019050818103600083015261060b81846105b8565b905092915050565b600073ffffffffffffffffffffffffffffffffffffffff82169050919050565b6000819050919050565b600061065861065361064e84610613565b610633565b610613565b9050919050565b600061066a8261063d565b9050919050565b600061067c8261065f565b9050919050565b61068c81610671565b82525050565b60006020820190506106a76000830184610683565b92915050565b600080fd5b600080fd5b600080fd5b60008083601f8401126106d2576106d16106ad565b5b8235905067ffffffffffffffff8111156106ef576106ee6106b2565b5b60208301915083600182028301111561070b5761070a6106b7565b5b9250929050565b60008060006040848603121561072b5761072a6104eb565b5b600061073986828701610516565b935050602084013567ffffffffffffffff81111561075a576107596104f0565b5b610766868287016106bc565b92509250509250925092565b60008115159050919050565b61078781610772565b82525050565b60006020820190506107a2600083018461077e565b92915050565b60006107b382610613565b9050919050565b6107c3816107a8565b81146107ce57600080fd5b50565b6000813590506107e0816107ba565b92915050565b60008060008060008060a08789031215610803576108026104eb565b5b600061081189828a016107d1565b965050602061082289828a01610516565b955050604061083389828a016107d1565b945050606061084489828a016107d1565b935050608087013567ffffffffffffffff811115610865576108646104f0565b5b61087189828a016106bc565b92509250509295509295509295565b7f4e487b7100000000000000000000000000000000000000000000000000000000600052602260045260246000fd5b600060028204905060018216806108c757607f821691505b602082108114156108db576108da610880565b5b50919050565b7f43616c6c6572206e6f74204169726e6f64652052525000000000000000000000600082015250565b6000610917601683610563565b9150610922826108e1565b602082019050919050565b600060208201905081810360008301526109468161090a565b9050919050565b7f4e6f20737563682072657175657374206d616465000000000000000000000000600082015250565b6000610983601483610563565b915061098e8261094d565b602082019050919050565b600060208201905081810360008301526109b281610976565b9050919050565b600080fd5b7f4e487b7100000000000000000000000000000000000000000000000000000000600052604160045260246000fd5b6109f6826105a7565b810181811067ffffffffffffffff82111715610a1557610a146109be565b5b80604052505050565b6000610a286104e1565b9050610a3482826109ed565b919050565b600067ffffffffffffffff821115610a5457610a536109be565b5b610a5d826105a7565b9050602081019050919050565b82818337600083830152505050565b6000610a8c610a8784610a39565b610a1e565b905082815260208101848484011115610aa857610aa76109b9565b5b610ab3848285610a6a565b509392505050565b600082601f830112610ad057610acf6106ad565b5b8135610ae0848260208601610a79565b91505092915050565b600060208284031215610aff57610afe6104eb565b5b600082013567ffffffffffffffff811115610b1d57610b1c6104f0565b5b610b2984828501610abb565b91505092915050565b610b3b816107a8565b82525050565b610b4a816104f5565b82525050565b60007fffffffff0000000000000000000000000000000000000000000000000000000082169050919050565b610b8581610b50565b82525050565b600082825260208201905092915050565b6000610ba88385610b8b565b9350610bb5838584610a6a565b610bbe836105a7565b840190509392505050565b600060e082019050610bde600083018b610b32565b610beb602083018a610b41565b610bf86040830189610b32565b610c056060830188610b32565b610c126080830187610b32565b610c1f60a0830186610b7c565b81810360c0830152610c32818486610b9c565b90509998505050505050505050565b600081519050610c50816104ff565b92915050565b600060208284031215610c6c57610c6b6104eb565b5b6000610c7a84828501610c41565b9150509291505056fea2646970667358221220b7dbc52fd2b9c4cf01352d4ffa0f71b340f6b53d000ab2c3250edc1ac69cf1e864736f6c63430008090033",
  "linkReferences": {},
  "deployedLinkReferences": {}
}